:0A0000000C9449030C9400000C94CA
:10000A0000000C9400000C9400000C9400000C9466
:10001A0000000C9400000C9400000C9400000C9456
:10002A0000000C9476030C9400000C9400000C94CD
:10003A0000000C9400000C9400000C9400000C9436
:10004A0000000C9400000C94000000000000000066
:10005A00000000000000000000000000BF000000D7
:10006A00000000000000000000000000070000007F
:10007A00070000000000000000000000E4003C004F
:10008A00E7003C002700000000000000460089004D
:10009A00FF0089007200000000000000060009004D
:1000AA008900660018006600910000006000960052
:1000BA00890099006600A000000000000700000007
:1000CA00000000000000000000000000FC00020028
:1000DA000100000000000000000000000100020012
:1000EA00FC00000000000000000000000A000700F9
:1000FA000A000000000000000000000010001000CC
:10010A007C001000100000000000000000008000C9
:10011A000000000000000000000000002000200095
:10012A002000000000000000000000000000800025
:10013A00000000000000000000000000C0003C00B9
:10014A000300000000000000000000007E008100A3
:10015A00810081007E00000000000000040002000F
:10016A00FF00000000000000000000008200C10043
:10017A00A10091008E0000000000000042008100F2
:10018A0089008900760000000000000030002C0081
:10019A002200FF0020000000000000004C008B003D
:1001AA008900890071000000000000007E008900BB
:1001BA008900890072000000000000000100E100CF
:1001CA001900070001000000000000007600890005
:1001DA008900890076000000000000004E009100AE
:1001EA00910091007E0000000000000084000000E1
:1001FA000000000000000000000000008400000071
:10020A0000000000000000000000000010002800AC
:10021A0028002800440000000000000028002800F0
:10022A0028002800280000000000000044002800E0
:10023A002800280010000000000000000200010051
:10024A00B10009000600000000000000F8000600E6
:10025A007200890085004500F9000000C0003000E6
:10026A002E0021002E003000C0000000FF0089008F
:10027A008900890089007E00000000003C004200DD
:10028A00810081008100420000000000FF0081001F
:10029A008100810042003C0000000000FF0089004C
:1002AA00890089008900000000000000FF000900A1
:1002BA000900090001000000000000003C004200A3
:1002CA00810081009100520034000000FF00080004
:1002DA00080008000800FF0000000000FF000000FE
:1002EA000000000000000000000000006000800024
:1002FA0080007F000000000000000000FF001000E6
:10030A0008001C006200810000000000FF0080005D
:10031A00800080008000000000000000FF0006004E
:10032A003800C00038000600FF000000FF0002008D
:10033A000C0030004000FF00000000003C004200BA
:10034A0081008100810042003C000000FF00110092
:10035A00110011000E000000000000003C004200E5
:10036A008100A100A1004200BC000000FF000900BA
:10037A000900190069008600000000004600890093
:10038A008900910091006200000000000100010054
:10039A00FF00010001000000000000007F00800053
:1003AA008000800080007F000000000003000C0035
:1003BA003000C00030000C00030000003C00C00008
:1003CA0030000E0001000E003000000081006600BF
:1003DA0018001800660081000000000001000600F5
:1003EA000800F00008000600010000008000C100BB
:1003FA00B1008D008300810000000000FF000100B1
:10040A0000000000000000000000000003003C00A3
:10041A00C000000000000000000000000100FF0012
:10042A0000000000000000000000000008000600B4
:10043A0001000600080000000000000000000000A3
:10044A00000000000000000000000000010002009F
:10045A000000000000000000000000006800940096
:10046A0094005400F800000000000000FF0048005B
:10047A0084008400780000000000000078008400F6
:10048A008400840048000000000000007800840016
:10049A0084004800FF00000000000000780094007B
:1004AA009400940058000000000000000400FE00C0
:1004BA000500000000000000000000007800840031
:1004CA0084004800FC00000000000000FF00080053
:1004DA0004000400F800000000000000FD00000015
:1004EA00000000000000000000000000FD00000005
:1004FA00000000000000000000000000FF001000E3
:10050A00680084000000000000000000FF000000F6
:10051A00000000000000000000000000FC000800CD
:10052A000400FC0004000400F8000000FC000400C1
:10053A0004000400F80000000000000078008400B5
:10054A00840084007800000000000000FC004800DD
:10055A008400840078000000000000007800840015
:10056A0084004800FC00000000000000FC000800B5
:10057A000400000000000000000000004800940091
:10058A009400A4004800000000000000FF0084005E
:10059A000000000000000000000000007C00800055
:1005AA0080004000FC000000000000000C00300049
:1005BA00C00030000C000000000000000C003000F9
:1005CA00C000380004003800C00000008400480061
:1005DA003000480084000000000000000C003000D9
:1005EA00C00030000C000000000000008400C400BD
:1005FA00B4008C0084000000000000001000EE002F
:10060A00010000000000000000000000FF000000E0
:10061A0000000000000000000000000000000100CF
:10062A00EE001000000000000000000018000800A2
:10063A00180010000800000000000000FF00810000
:10064A00FF0000000000000000001027E80364001B
:10065A000A00010000100001100001000000000063
:10066A000000000074686973206973206120746552
:10067A0073740000010002006606060004006806A2
:10068A000F0060026E060000F894EE27ECBBF1E062
:10069A00FBBFEBBFE5BF8DE0A2E0BB27ED938A95D8
:1006AA00E9F780E094E0A0E6ED930197E9F7EEE739
:1006BA00F6E085919591009761F0A591B591059025
:1006CA001590BF01F00105900D920197E1F7FB012A
:1006DA00F0CFEFE5EDBFE4E0EEBFC0E6D2E00C9468
:1006EA0059050A921A92FA926A937A938A939A937A
:1006FA00AA93BA93EA93FA93EFB7EA931A930A93EF
:10070A001BB10CB1ECB1AE2FEFD09698E12FEC7182
:10071A0089F4E52D5394F0E0E159FD4F0083E8E0B8
:10072A00E51509F455247394E8E0E71519F47724DC
:10073A00689420F809911991E991EFBFF991E9912B
:10074A00B991A9919991899179916991F9901990A1
:10075A0009901895BA93AA932E97D1500E94DF0553
:10076A000E9491050E948505EE83FF8320E030E018
:10077A002032E0E03E07C4F4EE81FF812E173F07E6
:10078A0084F040E050E04830E0E05E0754F4F901BC
:10079A000E949805E40FF51FA0E0A0834F5F5F4F0A
:1007AA00F2CF2F5F3F4FE4CF00E010E0EE81FF81F0
:1007BA000E171F070CF07AC0F8010E949105AE0FC0
:1007CA00BF1FEC91F0E0E887F987B097E887F987CF
:1007DA000E94A805E887F98720E030E02830E0E0A9
:1007EA003E07DCF4F901DE01A45FBE4FEA0FFB1FEE
:1007FA000F01E7E0F0E0E21BF30BA885B985EA0FE9
:10080A00FB1FA4E5B0E0EE0FFF1FEA0FFB1FE49108
:10081A00D001EC932F5F3F4FE1CF20E030E028304A
:10082A00E0E03E070CF03FC040E050E04830E0E036
:10083A005E07B4F5F8010E949805E20FF31FBF01A5
:10084A000080DE01A45FBE4FA40FB51FEC91F0E05B
:10085A00A1E0B0E00E94C705E00DDB01EC93E7E000
:10086A00F0E0E417F50751F0F8010E949805E20F4D
:10087A00F31F0F01E081EE0FD001EC93FA01DE01C4
:10088A00A45FBE4FEA0FFB1FBF01A081B0E0E2E008
:10089A00F0E00E94C205DB01EC934F5F5F4FC6CFC9
:1008AA002F5F3F4FBCCF0F5F1F4F80CF20E030E05C
:1008BA002830E0E03E079CF400E010E00032E0E07F
:1008CA001E0754F4F8010E949805E20FF31FA08155
:1008DA000BD00F5F1F4FF2CF2F5F3F4FE9CF0E9420
:1008EA00E6056696DF5F0895AA9395980000ECE006
:1008FA00EBBBE8E0E2BB959A000000009598000087
:10090A000E949F05959A0000959800002DC0AA9311
:10091A00000095980000EAE0EBBBE8E0E2BB0000CB
:10092A00959A00000000959800000E949F0500001B
:10093A00959A000000009598000016C0AA9300003E
:10094A0095980000EBE0EBBBE8E0E2BB0000959A6B
:10095A0000000000959800000E949F050000959AEB
:10096A0000000000959800002196089595980000CF
:10097A00E0E0EBBBE8E0E2BB0000959A0000000073
:10098A0095980000E2E3EBBBE0E0E2BB0000959A39
:10099A000000000095980000000095980000E1E032
:1009AA00EBBBE8E0E2BB0000959A000000009598D6
:1009BA000000E7E0EBBBE0E0E2BB0000959A000034
:1009CA00000095980000000095980000E2E0EBBB5B
:1009DA00E8E0E2BB0000959A00000000959800004C
:1009EA00EFE1EBBBE0E0E2BB0000959A00000000FB
:1009FA0095980000000095980000E3E0EBBBE8E062
:100A0A00E2BB0000959A0000000095980000E0E41F
:100A1A00EBBBE0E0E2BB0000959A0000000095986D
:100A2A000000000095980000E8E0EBBBE2BB000084
:100A3A00959A0000000095980000E0E0EBBBE2BB4D
:100A4A000000959A00000000959800000000959813
:100A5A000000E9E0EBBBE8E0E2BB0000959A000089
:100A6A00000095980000E0E0EBBBE2BB0000959A1D
:100A7A000000000095980000A0E00E948C04A0E00D
:100A8A000E94A30408951A930A9300E010E000302C
:100A9A00E8E01E0734F4A0E00E9479040F5F1F4FBC
:100AAA00F6CF099119910895EFEFE1BBEABBE2E0B5
:100ABA00EBB9E0E9EAB9E6E8E0BDE0E0E0BDECE088
:100ACA00E9B978940E94BB04DEDFE7E7F2E0FA9323
:100ADA00EA93A0E6B2E00E947805A7E7B2E00E9496
:100AEA00AF03FFCFFFCFBA93AA93E991F991A991E6
:100AFA00B991CD0161916D936623E1F7FC010895E7
:100B0A00BA93AA93A991B991EE27FF276D9166230B
:100B1A0011F03196FBCF0895DE01AC5EBE4F0D9009
:100B2A00BC91A02D08950E94A805DE011C96EA0F2B
:100B3A00FB1F0895E881EBBBE0E0E2BB0895F19565
:100B4A00E195F0400895EE0FFF1FEE0FFF1FEE0F25
:100B5A00FF1F08950024112490E1AA0FBB1F001C57
:100B6A00111C0E1A1F0A18F40E0E1F1E01C0A160D6
:100B7A009A9599F7FD01D00108950ED0EBDF0EF496
:100B8A00DEDF0895E894F7FF02C0D9DF6894EA230C
:100B9A00FB230EF4D4DF0895E894F7FF02C0CFDFF9
:100BAA006894B7FF06C0A095B095119600F8039413
:100BBA0000FA08955A934A933A932A931A930A93F6
:100BCA0008955D814C813B812A81198108810895AC
:00000001FF
